:020000040800F2
:1000000020050020450100084D0100084F010008AF
:1000100051010008530100085501000800000000CC
:100020000000000000000000000000005701000870
:1000300059010008000000005B0100085D01000894
:100040005F0100085F0100085F0100085F01000810
:100050005F0100085F0100085F0100085F01000800
:100060005F0100085F0100085F0100085F010008F0
:100070005F0100085F0100085F0100085F010008E0
:100080005F0100085F0100085F0100085F010008D0
:100090005F0100085F0100085F0100085F010008C0
:1000A0005F0100085F0100085F0100085F010008B0
:1000B0003D1B00085F0100085F0100085F010008A8
:1000C0005F0100085F0100085F0100085F01000890
:1000D0005F010008191E00085F010008E91F000801
:1000E0005F0100085F0100085F0100085F01000870
:1000F0005F0100085F0100085F0100085F01000860
:100100005F0100085F0100085F0100085F0100084F
:100110005F0100085F0100085F0100085F0100083F
:100120005F0100085F0100085F0100085F0100082F
:10013000DFF80CD000F042FA004800470927000819
:10014000200500200648804706480047FEE7FEE7F6
:10015000FEE7FEE7FEE7FEE7FEE7FEE7FEE7FEE777
:10016000D51A000831010008D2B201E000F8012BD5
:10017000491EFBD270470022F6E710B513460A4627
:1001800004461946FFF7F0FF204610BD30B505467E
:100190002A460B4612F8010B13F8014B08B1A04296
:1001A000F8D01CB1002802D06D1CF1E7284630BD04
:1001B000421C10F8011B0029FBD1801A704730B592
:1001C0000B46014600202022012409E021FA02F515
:1001D0009D4205D303FA02F5491B04FA02F52844AF
:1001E000151EA2F10102F1DC30BD2DE9F05F0546DC
:1001F000002092469B4688460646814640241BE0E6
:10020000284641464746224600F0F9F953465A46E9
:10021000C01A914110D311461846224600F0E0F969
:100220002D1A67EB01084F4622460120002100F0FD
:10023000D7F917EB00094E41201EA4F10104DFDCC1
:10024000484631462A464346BDE8F09F2DE9FE4F19
:10025000804681EA0300C00F0C46009021F0004167
:1002600023F00045B8EB0200A94105D240462146E3
:1002700090461C460B46024623F00040104347D0F0
:10028000270DC7F30A00C3F30A510290401A0190E8
:1002900040286BDAC3F3130040F4801B00989246A9
:1002A00020B10023D2EB030A63EB0B0B01985946F4
:1002B000C0F14002504600F093F906460D46504604
:1002C0005946019A00F0ABF910EB08006141002497
:1002D00087EA115284EAE7731A4340D0009A62B366
:1002E000019A012A4FEA075215DC001B61EB02015B
:1002F0004FF0004202EA0752CDE90042001C41F5EE
:10030000801132462B4600F0ABF903B0BDE8F08F08
:1003100040462146F9E7001B61EB0201001C41F554
:10032000801300185B412018A2F5001747EB03016A
:1003300040EAD570B6196D4111E06D084FEA3606F6
:1003400045EAC0754FEA0752001B61EB0201001C31
:1003500041F5801149084FEA3000001951413246F9
:100360002B4603B0BDE8F04F00F06BB900980122B6
:1003700040000023D0EB020263EBE07300982146BB
:100380004FEAE074B8EB000061EB0401E9E783F0A9
:1003900000435BE781F0004158E72DE9FE4F81EA19
:1003A000030404F0004421F0004100944FF0000BDE
:1003B00023F0004350EA01045ED052EA03045BD00C
:1003C000C3F30A54C1F30A552C44A4F2F334019444
:1003D000A0FB0254C1F3130141F48011C3F31303D2
:1003E00043F4801301FB024400FB034E840A970A86
:1003F00044EA815447EA8357A4FB076802958D0AB3
:1004000005FB07854FEA932C04FB0C542705029D3E
:100410004FEA065847EA1637B5EB08056EEB070CAE
:10042000870E920E47EA811742EA8312A7FB020168
:10043000B6EB0B0164EB00042B0D43EA0C335E18A2
:1004400044EB1C50DA465146E7FB0201C5F31304A6
:100450004FEA0B3343EA14534FEA0432019C43EA58
:100460000603A4F10C040294009CCDE900B400F052
:10047000F7F803B0BDE8F08F00200146F9E72DE959
:10048000F04D81EA030404F0004B21F000451446CE
:100490004FF0000A23F0004150EA050220D054EA50
:1004A00001021DD0C5F30A570246C5F31303C1F379
:1004B0001300C1F30A5640F4801543F48013A7EBF0
:1004C0000608101BD64608F2FD3873EB050002D370
:1004D00008F1010801E092185B41B8F1000F03DA5E
:1004E00000200146BDE8F08D00204FF48011064643
:1004F00084460EE0171B73EB050705D3121B63EB55
:10050000050306434CEA010C49084FEA30009218F3
:100510005B4150EA0107EDD152EA030012D082EAB2
:10052000040083EA0501084305D0101BAB4106D245
:100530000122002306E000224FF0004302E06FF0AA
:10054000010253101AEB06004CEB085110EB0A00A5
:1005500041EB0B01BDE8F04D00F073B8C1F30A5256
:10056000C1F3130140F2FF3341F480119A4202DAE1
:1005700000200146704740F233439A42A2F23342D0
:1005800002DC524200F03BB800F02AB830B5041E3D
:1005900071F1000404DB4FF00044404264EB0101C0
:1005A000141E73F1000405DB1C464FF00043524259
:1005B00063EB0403994208BF904230BD064C074DDF
:1005C00006E0E06840F0010394E807009847103423
:1005D000AC42F6D3FFF7B0FD5C3200087C32000875
:1005E000202A04DB203A00FA02F1002070479140F3
:1005F000C2F1200320FA03F3194390407047202AE8
:1006000004DB203A21FA02F00021704721FA02F3BC
:10061000D040C2F120029140084319467047202A79
:1006200006DBCB17203A41FA02F043EAE07306E01A
:1006300041FA02F3D040C2F120029140084319462A
:10064000704710B5141E73F1000408DA401C41F124
:10065000000192185B411A4301D120F0010010BD46
:100660002DE9F04D92469B4611B1B1FA81F202E0BC
:10067000B0FA80F220329046FFF7B2FF04460F46F0
:1006800040EA0A0041EA0B0153465A46084313D098
:10069000114653EA010019D0C8F140025046FFF755
:1006A000AEFF05460E46504659464246FFF798FFB4
:1006B000084305D0012004E020463946BDE8F08D0E
:1006C0000020054346EAE0762C4337430A98630549
:1006D000E40AA0EB08000022FD0A44EA47540A306D
:1006E00002D500200146E9E7010510196941DDE95D
:1006F000084500196941BDE8F04DA2E781B048F214
:100700008011C4F221210120086048F2A011C4F236
:100710002121086040F2B811C4F22321086040F2A0
:10072000B411C4F2222100200860009801B0704783
:1007300080B582B041F20000C4F201004FF40061C4
:1007400000F0AAFB41F20040C4F201000090012138
:1007500000F0ACFB0098402100F09EFB42F200004C
:10076000C4F201004FF4007100F0A0FB019802B048
:1007700080BD000080B582B041F20000C4F20100EB
:100780004FF4006100F088FB41F20040C4F2010028
:100790000090012100F08AFB0098402100F086FBC8
:1007A00042F20000C4F201004FF4007100F074FB4B
:1007B000019802B080BD000080B582B041F2000017
:1007C000C4F201004FF4006100F070FB41F2004000
:1007D000C4F201000090012100F05EFB009840216E
:1007E00000F05AFB42F20000C4F201004FF4007125
:1007F00000F05CFB019802B080BD000010B588B02D
:1008000001F0EAFF014640F21410C2F2000001605C
:100810000068B0F5AF6F10D9FFE740F21410C2F2D4
:100820000000006840097C2807D8FFE740F2B411B7
:10083000C4F222210120086085E040F21410C2F2C7
:1008400000000068B0F57A7F16D9FFE740F2141077
:10085000C2F200000068C008AE280DD8FFE740F2E1
:10086000B411C4F222210120086048F28011C4F2C0
:1008700021210020086065E040F21410C2F200005F
:100880000068B0F5167F1BD9FFE740F21410C2F2E2
:1008900000000068C0087C2812D8FFE740F2B411BD
:1008A000C4F222210120086048F28011C4F2212103
:1008B0000020086048F2A011C4F22121086040E045
:1008C00040F21410C2F200000068C8B3FFE740F223
:1008D0001410C2F200000068C0084A2830D8FFE7B0
:1008E00040F2B414C4F2222401200490206048F2A3
:1008F0008011C4F22121019100200690086048F285
:10090000A011C4F221210291086040F2B811C4F292
:10091000232103910860C820059001F0E9FDDDF86E
:1009200004C0029B039A04990598DDF818E0C4F806
:1009300000E0CCF800101960116001F0D9FDFFE76C
:10094000FFE7FFE7FFE7079808B010BD80B586B066
:1009500040F28C00C2F200000088012840F0D480F0
:10096000FFE743F21220C0F6000040F20B01C2F292
:100970000001049101F0CAFF049843F23121C0F64E
:100980000001FFF703FC28B1FFE7FFF7B7FE00F017
:100990009DF9A7E040F20B00C2F2000043F23921BA
:1009A000C0F60001FFF7F2FB28B1FFE700F084FC7E
:1009B000FFF7E0FE95E040F20B00C2F2000043F2C8
:1009C0003E21C0F60001FFF7E1FB28B1FFE700F090
:1009D00073FCFFF7F1FE83E040F20B00C2F200006F
:1009E00043F21F21C0F60001FFF7D0FB28B1FFE75B
:1009F000FFF79EFE00F006FB71E040F20B00C2F232
:100A0000000043F23421C0F60001FFF7BFFB28B11C
:100A1000FFE700F059FE00F0F5FA5FE040F20B004E
:100A2000C2F2000043F21B21C0F60001FFF7AEFB4B
:100A300018B1FFE7FFF762FE4FE040F20B00C2F291
:100A4000000043F22E21C0F60001FFF79FFB18B112
:100A5000FFE700F031FC3FE040F20B00C2F2000083
:100A600043F22921C0F60001FFF790FB18B1FFE720
:100A700000F04CFE2FE040F20B00C2F2000043F207
:100A80004E21C0F60001FFF781FB18B1FFE700F02F
:100A900017FA1FE040F20B00C2F2000043F24421BB
:100AA000C0F60001FFF772FB18B1FFE700F0C4FACF
:100AB0000FE040F20B00C2F2000043F22421C0F626
:100AC0000001FFF763FB18B1FFE700F07DFDFFE7D2
:100AD000FFE7FFE7FFE7FFE7FFE7FFE7FFE7FFE7E6
:100AE000FFE7FFE740F20B00C2F200000390FFF7C0
:100AF0005FFB01460398FFF73EFB40F28C01C2F218
:100B0000000100200880FFE740F21010C2F2000050
:100B10000088012840F0D480FFE743F21220C0F69D
:100B2000000040F29001C2F20001029101F0EEFEDD
:100B3000029843F23121C0F60001FFF727FB28B1EC
:100B4000FFE7FFF7DBFD00F0C1F8A7E040F29000FF
:100B5000C2F2000043F23921C0F60001FFF716FB94
:100B600028B1FFE700F0A8FBFFF704FE95E040F294
:100B70009000C2F2000043F23E21C0F60001FFF7F0
:100B800005FB28B1FFE700F097FBFFF715FE83E0B8
:100B900040F29000C2F2000043F21F21C0F60001B3
:100BA000FFF7F4FA28B1FFE7FFF7C2FD00F02AFAD9
:100BB00071E040F29000C2F2000043F23421C0F62E
:100BC0000001FFF7E3FA28B1FFE700F07DFD00F038
:100BD00019FA5FE040F29000C2F2000043F21B21DC
:100BE000C0F60001FFF7D2FA18B1FFE7FFF786FD64
:100BF0004FE040F29000C2F2000043F22E21C0F616
:100C00000001FFF7C3FA18B1FFE700F055FB3FE022
:100C100040F29000C2F2000043F22921C0F6000128
:100C2000FFF7B4FA18B1FFE700F070FD2FE040F2D3
:100C30009000C2F2000043F24E21C0F60001FFF71F
:100C4000A5FA18B1FFE700F03BF91FE040F2900071
:100C5000C2F2000043F24421C0F60001FFF796FA09
:100C600018B1FFE700F0E8F90FE040F29000C2F29F
:100C7000000043F22421C0F60001FFF787FA18B103
:100C8000FFE700F0A1FCFFE7FFE7FFE7FFE7FFE773
:100C9000FFE7FFE7FFE7FFE7FFE7FFE740F290002E
:100CA000C2F200000190FFF783FA01460198FFF7B6
:100CB00062FA40F21011C2F2000100200880FFE742
:100CC0000A2001F015FC059806B080BD80B582B001
:100CD00041F20000C4F201004FF4006100F0E6F8B8
:100CE00041F20040C4F201000090012100F0D4F86C
:100CF0000098402100F0DAF842F20000C4F201004E
:100D00004FF4007100F0C8F8019802B080BD0000F7
:100D100088B00790069100200590049003900290FF
:100D2000019000900698C07800F00F00059006989A
:100D3000C078C006002806D5FFE706988178059898
:100D400008430590FFE70698007800284BD0FFE79E
:100D500007980068019000200390FFE70398072898
:100D60003DD8FFE70399012088400290069800884B
:100D70000299084004900498029988422AD1FFE71A
:100D800003988000029002990F20884000900099FB
:100D90000198884301900598029900FA01F10198A1
:100DA000084301900698C078282806D1FFE70399E8
:100DB00001208840079948610BE00698C0784828D0
:100DC00006D1FFE703990120884007990861FFE7F2
:100DD000FFE7FFE7FFE7039801300390BEE70198C4
:100DE00007990860FFE706980088B0F5807F50DB20
:100DF000FFE707984068019000200390FFE7039801
:100E0000072842D8FFE7039800F108010120884035
:100E1000029006980088029908400490049802996C
:100E200088422DD1FFE703988000029002990F209D
:100E30008840009000990198884301900598029994
:100E400000FA01F10198084301900698C07828281B
:100E500008D1FFE7039800F10801012088400799B5
:100E60004861FFE70698C078482808D1FFE7039853
:100E700000F108010120884007990861FFE7FFE7BA
:100E8000FFE7039801300390B9E70198079948609C
:100E9000FFE708B07047000082B00190ADF8021083
:100EA000BDF802000199486102B0704782B001901C
:100EB000ADF80210BDF802000199086102B0704758
:100EC00080B582B0FFE740F20B00C2F2000043F2AF
:100ED0004E21C0F60001FFF759F9014601200090AC
:100EE00079B9FFE740F29000C2F2000043F24E21D0
:100EF000C0F60001FFF74AF9002818BF0120009052
:100F0000FFE70098C007002857D0FFE740F208101D
:100F1000C4F22420006801280DD1FFE740F21C1024
:100F2000C4F222200068012805D1FFE7FFF7CEFEBA
:100F3000FFF7E4FB40E040F20810C4F22420006810
:100F400098B9FFE740F21C10C4F222200068012883
:100F50000BD1FFE7FFF7ECFBFFF72EFC4FF42F70F0
:100F600001F0C6FA00F0A8F925E040F20810C4F23A
:100F700024200068012812D1FFE740F21C10C4F2BF
:100F80002220006858B9FFE7FFF7D2FBFFF7F2FB1A
:100F90004FF42F7001F0ACFA00F08EF90AE000F087
:100FA00093FBFFF7C5FB4FF47A7001F0A1FA00F054
:100FB00083F9FFE7FFE7FFE785E7019802B080BD0F
:100FC00080B582B041F20000C4F201004FF400612C
:100FD000FFF762FF41F20040C4F2010000900121DE
:100FE000FFF75AFF00984021FFF760FF42F2000030
:100FF000C4F201004FF40071FFF74EFF019802B0F8
:1010000080BD000081B048F28011C4F2212100208F
:10101000086048F2A011C4F22121086040F2B81122
:10102000C4F223210120086040F2B411C4F222214D
:101030000860009801B0704780B584B0FFE740F2C7
:101040000B00C2F2000043F24421C0F60001FFF79A
:101050009DF801460120029079B9FFE740F2900027
:10106000C2F2000043F24421C0F60001FFF78EF8FF
:10107000002818BF01200290FFE70298C00700284F
:1010800000F0B280FFE701F0A7FB014640F2141028
:10109000C2F2000001600068B0F5AF6F12D9FFE73F
:1010A00040F21410C2F20000006840097C2809D800
:1010B000FFE7FFF70BFE40F2B411C4F2222101203A
:1010C000086090E040F21410C2F200000068B0F531
:1010D0007A7F23D9FFE740F21410C2F200000068C3
:1010E000C008AE281AD8FFE7FFF7F0FD40F208016C
:1010F000C2F200013220086040F20901C2F2000190
:10110000086040F2B411C4F222210120086048F2C4
:101110008011C4F221210020086063E040F2141025
:10112000C2F200000068B0F5167F28D9FFE740F250
:101130001410C2F200000068C0087C281FD8FFE726
:10114000FFF7F6FA40F20801C2F200013C20086005
:1011500040F20901C2F20001086040F2B411C4F289
:1011600022210120086048F28011C4F221210020D0
:10117000086048F2A011C4F22121086031E040F279
:101180001410C2F20000006850B3FFE740F21410E0
:10119000C2F200000068C0084A2821D8FFE7FFF724
:1011A000C7FA40F2B411C4F2222101200190086074
:1011B00048F28011C4F221210020086048F2A011F9
:1011C000C4F22121086040F2B811C4F22321009139
:1011D0000860C82001F08CF9009901980860FFE7C9
:1011E000FFE7FFE7FFE72AE7039804B080BD0000B0
:1011F00084B003900020029001900F20009003988B
:10120000C078C0B3FFE74EF60C50CEF20000006885
:10121000C043C0F3022002900298C0F10400019084
:1012200000980299C840009003984078019988403E
:101230000290039880780099014002980843029038
:101240000298000102900298039909784EF2004238
:10125000CEF2000288540398027802F01F010120A8
:1012600088404EF20011CEF2000141EAD20121F095
:10127000030108600FE00398027802F01F010120CB
:1012800088404EF28011CEF2000141EAD20121F0F5
:1012900003010860FFE704B07047000081B00090D0
:1012A00000980021C0F2FA5108434EF60C51CEF2DC
:1012B0000001086001B0704781B048F28011C4F2AB
:1012C00021210020086048F2A011C4F22121086009
:1012D00040F2B811C4F22321086040F2B411C4F204
:1012E000222101200860009801B0704780B58CB0C1
:1012F000102001900121009100F06EF8009920204B
:1013000000F06AF800994FF4807000F065F80198D9
:1013100003218DF82A108DF82B004FF40060049003
:10132000ADF8280041F20000C4F2010003900AA9C0
:101330000291FFF7EDFC029911200590ADF828000D
:1013400041F20040C4F201000890FFF7E1FC02996D
:10135000089844220992ADF82820FFF7D9FC029999
:101360004FF400700790ADF8280042F20000C4F27C
:1013700001000690FFF7CCFC03980499FFF78CFD61
:1013800005990898FFF788FD06980799FFF784FDEF
:1013900008980999FFF780FD0B980CB080BD0000FC
:1013A00082B001908DF803109DF8030048B1FFE76B
:1013B000019A41F21C01C4F202010868104308605E
:1013C00008E0019A41F21C01C4F20201086890434E
:1013D0000860FFE702B0704782B001908DF80310FB
:1013E0009DF8030048B1FFE7019A41F21801C4F2E9
:1013F000020108681043086008E0019A41F21801F0
:10140000C4F20201086890430860FFE702B0704729
:1014100086B005900020049003900290019041F264
:101420000400C4F20200006800F00C00049004986C
:10143000009040B1FFE7009804280BD0FFE7009828
:1014400008280ED047E0059941F20020C0F27A004A
:10145000086047E0059941F20020C0F27A00086078
:1014600040E041F20400C4F20200016801F470118E
:101470000391006800F4803002900399022000EB91
:1014800091400390029848B9FFE7039840F6001195
:10149000C0F23D014843059908601BE041F2040099
:1014A000C4F2020000688003002809D5FFE7039812
:1014B00040F60011C0F23D0148430599086008E07C
:1014C000039841F20021C0F27A014843059908606F
:1014D000FFE7FFE706E0059941F20020C0F27A003D
:1014E0000860FFE741F20400C4F20200016801F065
:1014F000F0010491049909090491049A43F202212C
:10150000C0F600018A5C0192059B1A68DDF804C0F0
:1015100022FA0CF25A60026802F4E0620492049A21
:10152000120A0492049A8A5C0192059B5A68DDF8BB
:1015300004C022FA0CF29A60026802F4605204922B
:10154000049AD20A0492049A895C0191059A51681E
:10155000019BD940D160006800F440400490049899
:10156000800B0490049943F2FE10C0F60000405C2A
:1015700001900599C868019AB0FBF2F0086106B0C5
:101580007047000080B582B041F20000C4F2010053
:101590004FF40061FFF78AFC41F20040C4F2010001
:1015A00000900121FFF778FC00984021FFF774FCC0
:1015B00042F20000C4F201004FF40071FFF76CFC2E
:1015C000019802B080BD000080B582B0FFE740F214
:1015D0001010C2F200000088012870D1FFE743F22A
:1015E0001220C0F6000040F29001C2F2000100910A
:1015F00001F08CF9009843F23121C0F60001FEF7AA
:10160000C5FD28B1FFE7FFF7F9F8FFF75FFB55E0ED
:1016100040F29000C2F2000043F23921C0F600010E
:10162000FEF7B4FD28B1FFE7FFF7E8F8FFF7A2F8EF
:1016300043E040F29000C2F2000043F23E21C0F6C7
:101640000001FEF7A3FD28B1FFE7FFF7D7F8FFF78A
:10165000B3F831E040F29000C2F2000043F21F21E3
:10166000C0F60001FEF792FD28B1FFE7FFF760F832
:10167000FFF7C8FC1FE040F29000C2F2000043F206
:101680003421C0F60001FEF781FD28B1FFE700F02C
:101690001BF8FFF7B7FC0DE040F29000C2F200002B
:1016A00043F25321C0F60001FEF770FD08B1FFE7D9
:1016B00006E0FFE7FFE7FFE7FFE7FFE7FFE786E773
:1016C000019802B080BD000080B582B041F20000F8
:1016D000C4F201004FF40061FFF7DEFB41F200406D
:1016E000C4F2010000900121FFF7D6FB00984021D1
:1016F000FFF7D2FB42F20000C4F201004FF4007188
:10170000FFF7CAFB019802B080BD000080B582B02F
:10171000FFE740F20B00C2F2000043F22921C0F6BD
:101720000001FEF733FD01460120019079B9FFE782
:1017300040F29000C2F2000043F22921C0F60001FD
:10174000FEF724FD002818BF01200190FFE7019853
:10175000C007002800F0EB80FFE740F21010C4F251
:101760002420006820BBFFE740F21810C4F22420B8
:101770000068E8B9FFE740F22010C4F224200068B6
:10178000012815D1FFE740F20810C4F224200068B8
:1017900001280DD1FFE740F21C10C4F2222000689E
:1017A000012805D1FFE7FFF791FAFEF7A7FFBDE09B
:1017B00040F21010C4F22420006801282BD1FFE76A
:1017C00040F21810C4F22420006820BBFFE740F26A
:1017D0002010C4F22420006840B1FFE740F220103E
:1017E000C4F224200068012815D1FFE740F2081058
:1017F000C4F22420006801280DD1FFE740F21C103C
:10180000C4F222200068012805D1FFE7FFF7BAFEE5
:10181000FFF752FD89E040F21010C4F22420006866
:1018200060BBFFE740F21810C4F2242000680128D2
:1018300024D1FFE740F22010C4F22420006840B118
:10184000FFE740F22010C4F224200068012815D1DF
:10185000FFE740F20810C4F22420006801280DD1EF
:10186000FFE740F21C10C4F222200068012805D1D5
:10187000FFE7FFF7A5FBFFF71FFD55E040F2101053
:10188000C4F224200068012810D1FFE740F21810AC
:10189000C4F224200068012808D1FFE740F220109C
:1018A000C4F224200068012815D0FFE740F2101090
:1018B000C4F22420006888BBFFE740F21810C4F28D
:1018C0002420006850BBFFE740F22010C4F224201F
:1018D000006818BBFFE740F20810C4F2242000683B
:1018E000B8B1FFE740F20810C4F2242000680128D4
:1018F0000FD0FFE740F21C10C4F22220006840B174
:10190000FFE740F21C10C4F222200068012805D134
:10191000FFE7FEF72FFFFFF775FB04E0FFF7D4FEAC
:10192000FFF770FBFFE7FFE7FFE7FFE7F1E60020C7
:1019300002B080BD80B500F001F880BD84B0002009
:101940000390029041F20001C4F20201086840F4E1
:1019500080300860FFE741F20000C4F20200006836
:1019600000F400300290039801300390FFE70299E1
:101970000020019039B9FFE70398B0F5A06018BFC7
:1019800001200190FFE70198C0070028E3D1FFE79D
:1019900041F20000C4F2020000688003002803D571
:1019A000FFE70120029002E000200290FFE702988A
:1019B000012851D1FFE742F20001C4F20201086898
:1019C00040F010000860086820F003000860086814
:1019D00040F00200086041F20401C4F202010091EB
:1019E0000868086008680860086840F4806008605B
:1019F000086820F47C100860086840F4E81008606B
:101A000041F20001C4F20201086840F080700860F1
:101A1000FFE741F20000C4F20200006880010028E4
:101A200001D4FFE7F5E741F20401C4F202010868BE
:101A300020F003000860086840F002000860FFE73B
:101A400041F20400C4F20200006800F00C00082813
:101A500001D0FFE7F4E700E0FFE704B070470000C3
:101A600081B000900098042809D1FFE74EF21001E0
:101A7000CEF20001086840F00400086008E04EF271
:101A80001001CEF20001086820F004000860FFE7B2
:101A900001B0704780B56FF00400FFF7E1FF40F23E
:101AA0000400C2F2000000684DF68361C4F21B31ED
:101AB000A0FB0110410D40F21A10C2F200000170AB
:101AC00000784FF47A71484340F21811C2F20001D5
:101AD000088080BD80B541F20002C4F202021068A5
:101AE00040F00100106041F20401C4F202010868F4
:101AF0000023CFF6FF031840086010684FF6FF730D
:101B0000CFF6F66318401060106820F48020106053
:101B1000086820F4FE00086041F20801C4F20201E6
:101B20004FF41F000860FFF705FF4EF60851CEF294
:101B300000014FF00060086080BD000080B54FF0EC
:101B40008040012100F07EF8012857D1FFE740F2E4
:101B50000A00C2F200000078652807DBFFE740F2C8
:101B60000A01C2F200010020087007E040F20A01F9
:101B7000C2F20001087801300870FFE740F2080067
:101B8000C2F20000007840F20A01C2F200010978B6
:101B9000884208DAFFE741F20040C4F20100102158
:101BA000FFF784F907E041F20040C4F20100102180
:101BB000FFF772F9FFE740F20900C2F20000007877
:101BC00040F20A01C2F200010978884208DAFFE710
:101BD00041F20040C4F201000421FFF767F907E079
:101BE00041F20040C4F201000421FFF755F9FFE77C
:101BF0004FF08040012100F003F8FFE780BD0000B6
:101C000082B00190ADF80210BDF80200C043019906
:101C1000088202B07047000082B001908DF8031076
:101C20009DF8030030B1FFE70199088840F00100FA
:101C3000088005E00199088820F001000880FFE78E
:101C400002B0704783B00290ADF8061000208DF806
:101C50000500ADF80200ADF800000298008ABDF85A
:101C600006100840ADF8020002988089BDF8061001
:101C70000840ADF80000BDF8020040B1FFE7BDF834
:101C8000000020B1FFE701208DF8050003E00020EF
:101C90008DF80500FFE79DF8050003B070470000D0
:101CA00082B00190ADF802108DF801209DF801007E
:101CB00038B1FFE7BDF80220019988891043888177
:101CC00006E0BDF802200199888990438881FFE7EA
:101CD00002B0704783B0029001910020ADF802007D
:101CE00002980088ADF80200029842F60041C4F262
:101CF0000101884225D0FFE7029843F20041C4F277
:101D0000010188421DD0FFE70298B0F1804F18D042
:101D1000FFE7029840F20041C4F20001884210D06F
:101D2000FFE7029840F60001C4F20001884208D0A3
:101D3000FFE7029840F60041C4F2000188420ED14C
:101D4000FFE7BDF8020020F07000ADF80200019836
:101D50004188BDF802000843ADF80200FFE7029891
:101D600041F20001C4F20001884216D0FFE7029858
:101D700041F20041C4F2000188420ED0FFE7BDF8F5
:101D8000020020F44070ADF802000198C188BDF84F
:101D900002000843ADF80200FFE7BDF80200029917
:101DA00008800198808802998885019800880299A6
:101DB0000885029842F60041C4F20101884220D011
:101DC000FFE7029843F20041C4F20101884218D0B3
:101DD000FFE7029844F20001C4F20101884210D0EA
:101DE000FFE7029844F20041C4F20101884208D0A2
:101DF000FFE7029844F60001C4F20101884205D1D0
:101E0000FFE70198007A02990886FFE7029901200E
:101E1000888203B07047000080B582B043F60000AE
:101E2000C4F2010040F2255100F0FEF9002857D01D
:101E3000FFE743F60000C4F20100019000F044FB0C
:101E40000346019840F28E01C2F20001B1F800C0D1
:101E50000CF101020A8040F20B02C2F2000202F809
:101E60000C300988114411F8011C00F035FBFFE724
:101E700043F60000C4F20100802100F0B3F908B974
:101E8000FFE7F5E740F28E00C2F20000008840F262
:101E90000B01C2F20001084410F8010C0A2808D016
:101EA000FFE740F28E00C2F2000000887F2816D3C0
:101EB000FFE740F28C01C2F200010120088040F2ED
:101EC0008E00C2F200000090018840F20B00C2F2C6
:101ED000000000F04DF9009900200880FFE7FFE7BF
:101EE00002B080BD80B58EB00C9044F20400012198
:101EF0000591FFF771FA05990846FFF76DFA4FF45F
:101F00000070ADF82C0018208DF82F0003208DF8FC
:101F10002E0040F60000C4F2010001900BA90291CE
:101F2000FEF7F6FE019802994FF48062ADF82C207E
:101F300048228DF82F20FEF7EBFE0C98079000202A
:101F40000490ADF82000ADF82200ADF82400ADF803
:101F500028000C20ADF8260043F60000C4F2010072
:101F6000039007A900F002FA0398059A40F2255160
:101F700000F0B2F90398059900F01EF9049905984C
:101F800025228DF818208DF819108DF81A108DF86B
:101F90001B0006A8FFF72CF90D980EB080BD0000BD
:101FA00080B584B002900191FFE70198411E019134
:101FB000B0B1FFE70298411C0291017843F600009E
:101FC000C4F2010000F088FAFFE743F60000C4F213
:101FD0000100802100F006F908B9FFE7F5E7E4E722
:101FE000039804B080BD000080B582B044F60000C4
:101FF000C4F2000040F2255100F016F9012856D134
:10200000FFE744F60000C4F2000000F05DFA02466B
:1020100040F21210C2F200000388591C018040F205
:102020009001C2F20001CA540088084410F8011C53
:1020300043F60000C4F2010000F04EFAFFE744F658
:102040000000C4F20000802100F0CCF808B9FFE7DE
:10205000F5E740F21210C2F20000008840F2900151
:10206000C2F20001084410F8010C0A2808D0FFE76A
:1020700040F21210C2F2000000887F2816D3FFE75A
:1020800040F21210C2F200000190018840F290006C
:10209000C2F20000FFF784FF019940F21012C2F271
:1020A00000020120108000200880FFE7FFE702B057
:1020B00080BD000080B58EB00C90092001210591F3
:1020C000FFF78AF905994FF48020FFF769F94FF47B
:1020D0008060ADF82C0018208DF82F0003208DF8BB
:1020E0002E0040F60040C4F2010001900BA90291BD
:1020F000FEF70EFE019802994FF40062ADF82C2015
:1021000004228DF82F20FEF703FE0C980790002084
:102110000490ADF82000ADF82200ADF82400ADF831
:1021200028000C20ADF8260044F60000C4F20000A0
:10213000039007A900F01AF90398059A40F2255177
:1021400000F0CAF80398059900F036F8049905984C
:1021500027228DF818208DF8191005218DF81A10F6
:102160008DF81B0006A8FFF743F80D980EB080BD50
:1021700080B584B002900191FFE70198411E019162
:10218000B0B1FFE70298411C0291017844F60000CB
:10219000C4F2000000F0A0F9FFE744F60000C4F22A
:1021A0000000802100F01EF808B9FFE7F5E7E4E73A
:1021B000039804B080BD000082B001908DF8031038
:1021C0009DF8030030B1FFE70199888940F4005081
:1021D000888105E00199888920F400508881FFE713
:1021E00002B0704782B00190ADF8021000208DF867
:1021F0000100BDF80200B0F5007F01D1FFE7FFE765
:1022000001980088BDF802100840000420B1FFE7E3
:1022100001208DF8010003E000208DF80100FFE7A8
:102220009DF8010002B0704786B00590ADF812101D
:1022300000200390029001908DF80300BDF8120079
:1022400040F66A11884201D1FFE7FFE79DF81200CE
:1022500040090190BDF8120000F01F0002900299A1
:102260000120884002900198012806D1FFE70598D7
:10227000818902980840029010E00198022806D156
:10228000FFE70598018A02980840029005E005984A
:10229000818A029808400290FFE7FFE79DF813004B
:1022A00003900399012088400390059801880398C2
:1022B00008400390029838B1FFE7039820B1FFE788
:1022C00001208DF8030003E000208DF80300FFE7F4
:1022D0009DF8030006B0704786B00590ADF8121067
:1022E0008DF8112000200390029001900090BDF81D
:1022F000120040F66A11884201D1FFE7FFE7059816
:1023000000909DF8120040090390BDF8120000F003
:102310001F00029002990120884001900398012833
:1023200004D1FFE700980C3000900CE003980228DD
:1023300004D1FFE700981030009003E000981430BB
:102340000090FFE7FFE79DF8110030B1FFE7019A29
:10235000009908681043086005E0019A0099086830
:1023600090430860FFE706B07047000080B58CB06E
:102370000B900A9100200990089007900690059014
:102380000A98808908B1FFE7FFE70B9805900B9842
:10239000008A099009984CF6FF71084009900A9844
:1023A000C18809980843099009980B9908820B98ED
:1023B0008089099009984EF6F311084009900A990E
:1023C00088880A891043498901430998084309907C
:1023D00009980B9988810B98808A099009984FF683
:1023E000FF41084009900A9881890998084309909B
:1023F00009980B9988826846FFF70AF8059843F612
:102400000001C4F20101884203D1FFE7039808905C
:1024100002E002980890FFE70B98808900040028EA
:102420000AD5FFE70898192148430A990968490025
:10243000B0FBF1F0079009E00898192148430A9988
:1024400009688900B0FBF1F00790FFE7079848F2B0
:102450001F51C5F2EB11A0FB01016FF00F0000EA64
:1024600051000990079A09980009642100FB112086
:1024700006900B9880890004002810D5FFE7069984
:10248000322000EBC10048F21F51C5F2EB11A0FB56
:102490000110C0F342110998084309900FE0069912
:1024A000322000EB011048F21F51C5F2EB11A0FBE6
:1024B0000110C0F34311099808430990FFE70998F8
:1024C0000B9908810CB080BD81B000900098808885
:1024D0006FF35F2001B0704782B00190ADF8021039
:1024E000BDF802006FF35F200199888002B0704749
:1024F00083B0ADF80A00BDF80A0040F21811C2F22C
:102500000001098848434EF21401CEF20001086030
:102510004EF21801CEF20001002008604EF21001C8
:10252000CEF20001086840F001000860FFE74EF2BB
:102530001000CEF2000000680190FFE700209DF837
:102540000410C907009031B1FFE79DF80610012083
:1025500088430090FFE70098C0070028E7D1FFE715
:102560004EF21001CEF20001086820F00100086070
:102570004EF21801CEF200010020086003B070474F
:1025800083B00290029840F21A11C2F20001097859
:1025900048434EF21401CEF2000108604EF21801D9
:1025A000CEF20001002008604EF21001CEF20001D0
:1025B000086840F001000860FFE74EF21000CEF21C
:1025C000000000680190FFE700209DF80410C90793
:1025D000009031B1FFE79DF806100120884300907C
:1025E000FFE70098C0070028E7D1FFE74EF210018F
:1025F000CEF20001086820F0010008604EF21801D8
:10260000CEF200010020086003B0704780B582B0B0
:1026100040200121FEF7E0FE4FF48040ADF80400B9
:1026200003208DF8060010208DF8070041F6000009
:10263000C4F2010001A9FEF76BFB002002B080BDCF
:1026400082B001900091FFE743F60000C4F2010060
:1026500000884006002801D4FFE7F5E79DF8040054
:1026600043F60401C4F201010880019802B07047EA
:1026700080B582B04FF488700121FEF7ADFE802056
:10268000ADF8040003208DF8060048208DF80700FF
:1026900041F20000C4F2010001A90091FEF738FBED
:1026A00000990420ADF8040042F20000C4F20100D9
:1026B000FEF72EFB002002B080BD000080B582B086
:1026C00018200121FEF788FE40F20110ADF8040049
:1026D00003208DF8060010208DF8070040F600401A
:1026E000C4F2010001A90091FEF712FB00994FF41A
:1026F0000050ADF8040041F20000C4F20100FEF702
:1027000007FB002002B080BD80B582B000200190A0
:102710004FF4E130FFF7E6FB4FF41650FFF7CAFC29
:10272000FFF7B8F9FFF7CAFFFFF770FFFFF7A0FF49
:1027300000F026F8FEF7DAFD00F0AEF800F07EF8C3
:1027400000F04AF840F20801C2F20001322008709D
:1027500040F20901C2F20001087040F2B811C4F25F
:102760002321012008604FF4A060FEF797FD6FF071
:102770000400FFF775F9FFE7FEF7E8F8FCE7000053
:1027800080B584B04FF4807000900121FEF724FEE4
:102790004FF4A870ADF80C0003208DF80E0048200F
:1027A0008DF80F0042F20000C4F20100019003A96D
:1027B0000291FEF7ADFA009A01980299ADF80C204B
:1027C000FEF7A6FA019802994022ADF80C20FEF718
:1027D0009FFA002004B080BD80B584B00020029034
:1027E000039048F2A011C4F2222101910120086057
:1027F0001420FFF7C5FE019902980860FFE748F230
:102800003810C4F22120006808B9FFE7F7E7FFE7B6
:1028100048F23810C4F22120006838B1FFE70820E0
:10282000FFF7AEFE039801300390F1E703984008EC
:102830000390039800EB400004B080BD80B584B0E5
:1028400028200121FEF7C8FD4FF48040ADF80C00B0
:10285000032001908DF80E0004208DF80F0040F643
:102860000040C4F2010003A90291FEF751FA019859
:1028700002994FF48072ADF80C208DF80E001020F4
:102880008DF80F0041F20040C4F20100FEF740FA5B
:10289000002004B080BD000080B588B00121019106
:1028A0000846FEF77DFD01990846FEF795FD0020DC
:1028B0000290ADF812000920ADF8140040F2CF20CC
:1028C000ADF810004FF08040009004A9FFF702FA25
:1028D00000980199FFF794F900980199FFF79CF986
:1028E0000098019A1146FFF7DBF9019902981C2222
:1028F0008DF80C208DF80F108DF80D108DF80E004E
:1029000003A8FEF775FC079808B080BD0FB4054B0F
:1029100010B503A9044A029800F0DAF810BC5DF87B
:1029200014FB0000412600080000002002E008C857
:10293000121F08C1002AFAD170477047002001E039
:1029400001C1121F002AFBD1704700002DE9FF5F73
:1029500082B00021DDE90430020DDDF840B0034310
:1029600018D044F61050A2F2FF32424315141198C9
:1029700001281FD0A5EB0B00401C5FEA000A4FF0B6
:1029800000064E4FDFF83891B046504615D5CAF1D3
:10299000000413E0119801244AA3012801D16FEA31
:1029A0000B010298119AC0E90031C0E9024206B059
:1029B000BDE8F09FCBF10000DFE704460021404A6C
:1029C000491842EB0450CDE9001012E0E00707D0AF
:1029D00032463B4640464946FDF7DFFC8046894685
:1029E00032463B4610461946FDF7D7FC06460F46D1
:1029F0006410002CEAD1DDE90401DDE90023BAF11D
:102A0000000F06DAFDF7C9FC42464B46FDF7C5FC50
:102A100005E0FDF734FD42464B46FDF730FD044628
:102A20000E460022284BFDF7B1FD03D84FF0FF30D2
:102A3000014607E00022254B20463146FDF706FC03
:102A4000FDF78CFD102409E0002C0ADB0A2200238C
:102A5000FDF7CBFB039B30321A55641E50EA01028E
:102A6000F2D1641C039AC4F111031444119A012A8F
:102A700003D0012208430DD10AE0084304D000200E
:102A80004FF0110B119072E7A3EB0B056D1E0DE0DB
:102A90005B4504DD4FF0000205F1010504E003DAB7
:102AA0004FF00002A5F10105002AECD0029811991F
:102AB000C0E90231C0E9004579E700000000144098
:102AC0000000F03F300000000000F0430000E03F55
:102AD0002DE9FF4F95B09B468946064600250FE23B
:102AE000252877D100242746F84A0121059400E0E3
:102AF000044316F8013F203B01FA03F01042F7D1DE
:102B000030782A2811D06FF02F033078A0F13002EE
:102B1000092A16D8059A44F0020402EB820203EB5C
:102B200042021044761C0590EFE759F8042B0592F9
:102B3000002A03DA504244F40054059044F00204A1
:102B4000761C30782E2816D116F8010F44F00404B4
:102B50002A280DD06FF02F023078A0F13003092B16
:102B600009D807EB870302EB4303C718761CF3E78A
:102B700059F8047B761C30786C280FD006DC4C2882
:102B800017D068280DD06A2814D104E0742810D01A
:102B90007A280FD10DE044F400140AE044F48014C4
:102BA00001E044F440147278824202D104F58014AA
:102BB000761C761C307866280BD013DC582877D02A
:102BC00009DC002875D04528F6D04628F4D04728DF
:102BD0001AD19DE118E0632835D0642879D06528A2
:102BE00012D195E1702873D008DC6728F1D06928EC
:102BF0006FD06E280DD06F2806D1B5E073282CD089
:102C0000752875D0782874D05A46179990476D1C4E
:102C100075E1C4F30250022809D003280DD0D9F879
:102C2000001004280DD00D6009F1040967E1D9F8FE
:102C30000010EA17C1E90052F6E7D9F800100D803C
:102C4000F2E70D70F0E719F8041B8DF80010002072
:102C50008DF80100EA46012003E059F804AB4FF07B
:102C6000FF3061074FF0000102D40DE008F10101CF
:102C70008846B9420FDA8045F8DB1AF808100029B7
:102C8000F4D108E008F1010188468142FADB1AF824
:102C900008100029F6D105985B46A0EB08072146ED
:102CA0003846179A00F094FA284400EB080507E02C
:102CB0004DE029E10DE01AF8010B5A4617999047AB
:102CC000B8F10108F7D25B4621463846179A13E15E
:102CD00042E00A220092C4F302524FF0000A022A94
:102CE00008D059F804CB032A4FEAEC710AD00DE062
:102CF00029E02AE009F1070121F00702F2E802C108
:102D0000914609E00FFA8CFC4FEAEC71042A03D1DA
:102D10004FFA8CFC4FEAEC71002907DA0A460021D1
:102D2000DCF1000C61EB02012D2202E0220504D54A
:102D30002B228DF80420012203E0E20701D020229B
:102D4000F7E7904659E00A2102E010220DE0102139
:102D50004FF0000A00910BE010224FF0000A44F0FF
:102D600004040827009203E008224FF0000A0092B2
:102D7000C4F30252022A05D059F804CB0021032AD9
:102D800008D009E009F1070121F00702F2E802C1C9
:102D9000914605E01FFA8CFC042A01D10CF0FF0CCF
:102DA0004FF00008220728D5702806D0009B83F03A
:102DB000100353EA0A0305D00EE040228DF80420E8
:102DC000012208E05CEA010206D030228DF80420DE
:102DD0008DF8050002229046009B83F0080353EA19
:102DE0000A030AD15CEA010201D1620705D530224B
:102DF0008DF804204FF001087F1E582804D034A01D
:102E000003900EA802900DE036A0F9E75346604605
:102E1000009AFDF7EAF984460398825C0298401E06
:102E2000029002705CEA0100F0D1029806A9081A2B
:102E300000F1200A600702D524F4803400E0012765
:102E4000574502DDA7EB0A0000E0002000EB0A0175
:102E5000009005984144401A0590E00306D45B4673
:102E60002146179A059800F0B3F90544002706E0BB
:102E700001A85A46C05D179990476D1C7F1C4745B5
:102E8000F6DBE0030CD55B462146179A059800F067
:102E90009FF9054404E030205A46179990476D1C6D
:102EA0000099481E00900029F5DC08E0029802997C
:102EB0005A460078491C0291179990476D1CBAF147
:102EC0000001AAF1010AF1DC65E100000928010016
:102ED0003031323334353637383961626364656690
:102EE0000000000030313233343536373839414252
:102EF000434445460000000000F058F90544761CA4
:102F0000307800287FF4ECAD19B02846BDE8F08F8A
:102F1000620700D4062709F1070222F0070CFCE83B
:102F20000223E14603F000485FEA080C02D00FF2EA
:102F3000702C0DE05FEA045C02D50FF2682C07E00C
:102F40005FEAC47C02D00FF2602C01E0AFF2700C9B
:102F50004FF0FF3823F00043CDF850C065280CD067
:102F600006DC452809D046281DD047283DD13DE044
:102F7000662818D067287ED138E00021112F01DBA8
:102F8000112000E0781CCDE9000106A90EA8FFF78A
:102F9000DDFCDDE90F010E9A03910021009207F19B
:102FA000010A04914DE04FF000400097CDE9011077
:102FB00006A90EA8FFF7CAFCDDE90F0203920E9BDB
:102FC00011990022DDF80CA00093049211B9791C2C
:102FD00000EB010AB7EB0A0004D4C0F1FF3007F19F
:102FE000010A0490AAEB0700019044E0012F00DAE7
:102FF00001270021112F01DD112000E03846CDE925
:10300000000106A90EA8FFF7A1FCDDE90F010E9A49
:103010000391002104910092BA4621070CD4039930
:10302000514500DA8A46BAF1010F05DD009AAAF18E
:103030000101515C302908D0B84202DA10F1040FC6
:1030400006DA0121CDE9011015E0AAF10101E9E755
:10305000002805DC049901440491AAEB000102E078
:10306000411C514500DD8A460499401A401C0190DC
:103070004FF000400290200704D40198504501DB36
:10308000CDF8048000208DF84F0002980DF14F0715
:10309000B0F1004F25D02B200E9002984FF002087F
:1030A00000280CDA404202902D200E9007E00A2101
:1030B0000298FDF784F83031029007F8011DB8F14D
:1030C0000001A8F10108F2DC02980028EFD1791E76
:1030D0000E980870307800F0200040F0450007F8A6
:1030E000020D12A8C01B00F107081498007800B167
:1030F000012000EB0A01019801EBE07105984144C1
:10310000401A401E0590E00306D45B462146179AFC
:10311000059800F05DF805441498007818B15A46F7
:10312000179990476D1CE00324D55B462146179AFA
:10313000059800F04DF805441CE00498002807DBD2
:10314000DDE90301884203DD0098405C179901E046
:10315000179930205A469047049805F10105401C04
:1031600004900198401E019004D12E205A461799D0
:1031700090476D1CBAF10001AAF1010ADDDC05E0FF
:1031800017F8010B5A46179990476D1CB8F10001CA
:10319000A8F10108F4DC5B462146179A0598ABE6D6
:1031A0002D0000002B000000200000002DE9F04160
:1031B000044600251E461746880404D405E0394617
:1031C0002020B0476D1C641EF9D52846BDE8F0816B
:1031D0002DE9F041044600251E469046C80301D55E
:1031E000302700E02027880404D505E04146384612
:1031F000B0476D1C641EF9D52846BDE8F081020475
:10320000060800000000010203040102030406078F
:103210000809646174613A25730A006F666600628A
:1032200061636B007A63726B007378786C006F6E09
:1032300000676F0073746F70006C6566740072696C
:10324000676874006D6F73687573686F7500687771
:10325000627A00627265616B0000000080320008D3
:1032600000000020080000002C2900088832000817
:1032700008000020180500003C290008000000009C
:083280000000000000A24A0456
:0400000508000131BD
:00000001FF
